{
  "_format": "hh-sol-artifact-1",
  "contractName": "KeyNFT",
  "sourceName": "contracts/KeyNFT.sol",
  "abi": [
    {
      "inputs": [],
      "stateMutability": "nonpayable",
      "type": "constructor"
    },
    {
      "anonymous": false,
      "inputs": [
        {
          "indexed": true,
          "internalType": "address",
          "name": "owner",
          "type": "address"
        },
        {
          "indexed": true,
          "internalType": "address",
          "name": "approved",
          "type": "address"
        },
        {
          "indexed": true,
          "internalType": "uint256",
          "name": "tokenId",
          "type": "uint256"
        }
      ],
      "name": "Approval",
      "type": "event"
    },
    {
      "anonymous": false,
      "inputs": [
        {
          "indexed": true,
          "internalType": "address",
          "name": "owner",
          "type": "address"
        },
        {
          "indexed": true,
          "internalType": "address",
          "name": "operator",
          "type": "address"
        },
        {
          "indexed": false,
          "internalType": "bool",
          "name": "approved",
          "type": "bool"
        }
      ],
      "name": "ApprovalForAll",
      "type": "event"
    },
    {
      "anonymous": false,
      "inputs": [
        {
          "indexed": true,
          "internalType": "address",
          "name": "previousOwner",
          "type": "address"
        },
        {
          "indexed": true,
          "internalType": "address",
          "name": "newOwner",
          "type": "address"
        }
      ],
      "name": "OwnershipTransferred",
      "type": "event"
    },
    {
      "anonymous": false,
      "inputs": [
        {
          "indexed": true,
          "internalType": "address",
          "name": "from",
          "type": "address"
        },
        {
          "indexed": true,
          "internalType": "address",
          "name": "to",
          "type": "address"
        },
        {
          "indexed": true,
          "internalType": "uint256",
          "name": "tokenId",
          "type": "uint256"
        }
      ],
      "name": "Transfer",
      "type": "event"
    },
    {
      "inputs": [
        {
          "internalType": "address",
          "name": "to",
          "type": "address"
        },
        {
          "internalType": "uint256",
          "name": "tokenId",
          "type": "uint256"
        }
      ],
      "name": "approve",
      "outputs": [],
      "stateMutability": "nonpayable",
      "type": "function"
    },
    {
      "inputs": [
        {
          "internalType": "address",
          "name": "owner",
          "type": "address"
        }
      ],
      "name": "balanceOf",
      "outputs": [
        {
          "internalType": "uint256",
          "name": "",
          "type": "uint256"
        }
      ],
      "stateMutability": "view",
      "type": "function"
    },
    {
      "inputs": [
        {
          "internalType": "uint256",
          "name": "tokenId",
          "type": "uint256"
        }
      ],
      "name": "getApproved",
      "outputs": [
        {
          "internalType": "address",
          "name": "",
          "type": "address"
        }
      ],
      "stateMutability": "view",
      "type": "function"
    },
    {
      "inputs": [
        {
          "internalType": "address",
          "name": "owner",
          "type": "address"
        },
        {
          "internalType": "address",
          "name": "operator",
          "type": "address"
        }
      ],
      "name": "isApprovedForAll",
      "outputs": [
        {
          "internalType": "bool",
          "name": "",
          "type": "bool"
        }
      ],
      "stateMutability": "view",
      "type": "function"
    },
    {
      "inputs": [
        {
          "internalType": "address",
          "name": "recipient",
          "type": "address"
        },
        {
          "internalType": "string",
          "name": "encryptedKey",
          "type": "string"
        },
        {
          "internalType": "string",
          "name": "contentID",
          "type": "string"
        }
      ],
      "name": "mintNFT",
      "outputs": [
        {
          "internalType": "uint256",
          "name": "",
          "type": "uint256"
        }
      ],
      "stateMutability": "nonpayable",
      "type": "function"
    },
    {
      "inputs": [],
      "name": "name",
      "outputs": [
        {
          "internalType": "string",
          "name": "",
          "type": "string"
        }
      ],
      "stateMutability": "view",
      "type": "function"
    },
    {
      "inputs": [],
      "name": "owner",
      "outputs": [
        {
          "internalType": "address",
          "name": "",
          "type": "address"
        }
      ],
      "stateMutability": "view",
      "type": "function"
    },
    {
      "inputs": [
        {
          "internalType": "uint256",
          "name": "tokenId",
          "type": "uint256"
        }
      ],
      "name": "ownerOf",
      "outputs": [
        {
          "internalType": "address",
          "name": "",
          "type": "address"
        }
      ],
      "stateMutability": "view",
      "type": "function"
    },
    {
      "inputs": [],
      "name": "renounceOwnership",
      "outputs": [],
      "stateMutability": "nonpayable",
      "type": "function"
    },
    {
      "inputs": [
        {
          "internalType": "address",
          "name": "from",
          "type": "address"
        },
        {
          "internalType": "address",
          "name": "to",
          "type": "address"
        },
        {
          "internalType": "uint256",
          "name": "tokenId",
          "type": "uint256"
        }
      ],
      "name": "safeTransferFrom",
      "outputs": [],
      "stateMutability": "nonpayable",
      "type": "function"
    },
    {
      "inputs": [
        {
          "internalType": "address",
          "name": "from",
          "type": "address"
        },
        {
          "internalType": "address",
          "name": "to",
          "type": "address"
        },
        {
          "internalType": "uint256",
          "name": "tokenId",
          "type": "uint256"
        },
        {
          "internalType": "bytes",
          "name": "_data",
          "type": "bytes"
        }
      ],
      "name": "safeTransferFrom",
      "outputs": [],
      "stateMutability": "nonpayable",
      "type": "function"
    },
    {
      "inputs": [
        {
          "internalType": "address",
          "name": "operator",
          "type": "address"
        },
        {
          "internalType": "bool",
          "name": "approved",
          "type": "bool"
        }
      ],
      "name": "setApprovalForAll",
      "outputs": [],
      "stateMutability": "nonpayable",
      "type": "function"
    },
    {
      "inputs": [
        {
          "internalType": "bytes4",
          "name": "interfaceId",
          "type": "bytes4"
        }
      ],
      "name": "supportsInterface",
      "outputs": [
        {
          "internalType": "bool",
          "name": "",
          "type": "bool"
        }
      ],
      "stateMutability": "view",
      "type": "function"
    },
    {
      "inputs": [],
      "name": "symbol",
      "outputs": [
        {
          "internalType": "string",
          "name": "",
          "type": "string"
        }
      ],
      "stateMutability": "view",
      "type": "function"
    },
    {
      "inputs": [
        {
          "internalType": "uint256",
          "name": "tokenId",
          "type": "uint256"
        }
      ],
      "name": "tokenURI",
      "outputs": [
        {
          "internalType": "string",
          "name": "",
          "type": "string"
        }
      ],
      "stateMutability": "view",
      "type": "function"
    },
    {
      "inputs": [
        {
          "internalType": "address",
          "name": "from",
          "type": "address"
        },
        {
          "internalType": "address",
          "name": "to",
          "type": "address"
        },
        {
          "internalType": "uint256",
          "name": "tokenId",
          "type": "uint256"
        }
      ],
      "name": "transferFrom",
      "outputs": [],
      "stateMutability": "nonpayable",
      "type": "function"
    },
    {
      "inputs": [
        {
          "internalType": "address",
          "name": "newOwner",
          "type": "address"
        }
      ],
      "name": "transferOwnership",
      "outputs": [],
      "stateMutability": "nonpayable",
      "type": "function"
    }
  ],
  "bytecode": "0x60806040523480156200001157600080fd5b506040518060400160405280600681526020017f4b65794e465400000000000000000000000000000000000000000000000000008152506040518060400160405280600381526020017f4e46540000000000000000000000000000000000000000000000000000000000815250816000908051906020019062000096929190620001a6565b508060019080519060200190620000af929190620001a6565b505050620000d2620000c6620000d860201b60201c565b620000e060201b60201c565b620002bb565b600033905090565b6000600760009054906101000a900473ffffffffffffffffffffffffffffffffffffffff16905081600760006101000a81548173ffffffffffffffffffffffffffffffffffffffff021916908373ffffffffffffffffffffffffffffffffffffffff1602179055508173ffffffffffffffffffffffffffffffffffffffff168173ffffffffffffffffffffffffffffffffffffffff167f8be0079c531659141344cd1fd0a4f28419497f9722a3daafe3b4186f6b6457e060405160405180910390a35050565b828054620001b49062000256565b90600052602060002090601f016020900481019282620001d8576000855562000224565b82601f10620001f357805160ff191683800117855562000224565b8280016001018555821562000224579182015b828111156200022357825182559160200191906001019062000206565b5b50905062000233919062000237565b5090565b5b808211156200025257600081600090555060010162000238565b5090565b600060028204905060018216806200026f57607f821691505b602082108114156200028657620002856200028c565b5b50919050565b7f4e487b7100000000000000000000000000000000000000000000000000000000600052602260045260246000fd5b61349780620002cb6000396000f3fe608060405234801561001057600080fd5b506004361061010b5760003560e01c8063715018a6116100a2578063a3ee38ae11610071578063a3ee38ae146102a4578063b88d4fde146102d4578063c87b56dd146102f0578063e985e9c514610320578063f2fde38b146103505761010b565b8063715018a6146102425780638da5cb5b1461024c57806395d89b411461026a578063a22cb465146102885761010b565b806323b872dd116100de57806323b872dd146101aa57806342842e0e146101c65780636352211e146101e257806370a08231146102125761010b565b806301ffc9a71461011057806306fdde0314610140578063081812fc1461015e578063095ea7b31461018e575b600080fd5b61012a60048036038101906101259190612215565b61036c565b6040516101379190612754565b60405180910390f35b61014861044e565b604051610155919061276f565b60405180910390f35b61017860048036038101906101739190612267565b6104e0565b60405161018591906126ed565b60405180910390f35b6101a860048036038101906101a391906121d9565b610565565b005b6101c460048036038101906101bf9190612054565b61067d565b005b6101e060048036038101906101db9190612054565b6106dd565b005b6101fc60048036038101906101f79190612267565b6106fd565b60405161020991906126ed565b60405180910390f35b61022c60048036038101906102279190611fef565b6107af565b60405161023991906129d1565b60405180910390f35b61024a610867565b005b6102546108ef565b60405161026191906126ed565b60405180910390f35b610272610919565b60405161027f919061276f565b60405180910390f35b6102a2600480360381019061029d919061211e565b6109ab565b005b6102be60048036038101906102b9919061215a565b6109c1565b6040516102cb91906129d1565b60405180910390f35b6102ee60048036038101906102e991906120a3565b610ac4565b005b61030a60048036038101906103059190612267565b610b26565b604051610317919061276f565b60405180910390f35b61033a60048036038101906103359190612018565b610c78565b6040516103479190612754565b60405180910390f35b61036a60048036038101906103659190611fef565b610d0c565b005b60007f80ac58cd000000000000000000000000000000000000000000000000000000007bffffffffffffffffffffffffffffffffffffffffffffffffffffffff1916827bffffffffffffffffffffffffffffffffffffffffffffffffffffffff1916148061043757507f5b5e139f000000000000000000000000000000000000000000000000000000007bffffffffffffffffffffffffffffffffffffffffffffffffffffffff1916827bffffffffffffffffffffffffffffffffffffffffffffffffffffffff1916145b80610447575061044682610e04565b5b9050919050565b60606000805461045d90612c81565b80601f016020809104026020016040519081016040528092919081815260200182805461048990612c81565b80156104d65780601f106104ab576101008083540402835291602001916104d6565b820191906000526020600020905b8154815290600101906020018083116104b957829003601f168201915b5050505050905090565b60006104eb82610e6e565b61052a576040517f08c379a000000000000000000000000000000000000000000000000000000000815260040161052190612931565b60405180910390fd5b6004600083815260200190815260200160002060009054906101000a900473ffffffffffffffffffffffffffffffffffffffff169050919050565b6000610570826106fd565b90508073ffffffffffffffffffffffffffffffffffffffff168373ffffffffffffffffffffffffffffffffffffffff1614156105e1576040517f08c379a00000000000000000000000000000000000000000000000000000000081526004016105d890612991565b60405180910390fd5b8073ffffffffffffffffffffffffffffffffffffffff16610600610eda565b73ffffffffffffffffffffffffffffffffffffffff16148061062f575061062e81610629610eda565b610c78565b5b61066e576040517f08c379a000000000000000000000000000000000000000000000000000000000815260040161066590612871565b60405180910390fd5b6106788383610ee2565b505050565b61068e610688610eda565b82610f9b565b6106cd576040517f08c379a00000000000000000000000000000000000000000000000000000000081526004016106c4906129b1565b60405180910390fd5b6106d8838383611079565b505050565b6106f883838360405180602001604052806000815250610ac4565b505050565b6000806002600084815260200190815260200160002060009054906101000a900473ffffffffffffffffffffffffffffffffffffffff169050600073ffffffffffffffffffffffffffffffffffffffff168173ffffffffffffffffffffffffffffffffffffffff1614156107a6576040517f08c379a000000000000000000000000000000000000000000000000000000000815260040161079d906128b1565b60405180910390fd5b80915050919050565b60008073ffffffffffffffffffffffffffffffffffffffff168273ffffffffffffffffffffffffffffffffffffffff161415610820576040517f08c379a000000000000000000000000000000000000000000000000000000000815260040161081790612891565b60405180910390fd5b600360008373ffffffffffffffffffffffffffffffffffffffff1673ffffffffffffffffffffffffffffffffffffffff168152602001908152602001600020549050919050565b61086f610eda565b73ffffffffffffffffffffffffffffffffffffffff1661088d6108ef565b73ffffffffffffffffffffffffffffffffffffffff16146108e3576040517f08c379a00000000000000000000000000000000000000000000000000000000081526004016108da90612951565b60405180910390fd5b6108ed60006112e0565b565b6000600760009054906101000a900473ffffffffffffffffffffffffffffffffffffffff16905090565b60606001805461092890612c81565b80601f016020809104026020016040519081016040528092919081815260200182805461095490612c81565b80156109a15780601f10610976576101008083540402835291602001916109a1565b820191906000526020600020905b81548152906001019060200180831161098457829003601f168201915b5050505050905090565b6109bd6109b6610eda565b83836113a6565b5050565b60006109cb610eda565b73ffffffffffffffffffffffffffffffffffffffff166109e96108ef565b73ffffffffffffffffffffffffffffffffffffffff1614610a3f576040517f08c379a0000000000000000000000000000000000000000000000000000000008152600401610a3690612951565b60405180910390fd5b610a496008611513565b6000610a556008611529565b9050610a618582611537565b60008385604051602001610a769291906126a8565b6040516020818303038152906040529050610ab882610a9483611555565b604051602001610aa49190612686565b6040516020818303038152906040526116df565b81925050509392505050565b610ad5610acf610eda565b83610f9b565b610b14576040517f08c379a0000000000000000000000000000000000000000000000000000000008152600401610b0b906129b1565b60405180910390fd5b610b2084848484611753565b50505050565b6060610b3182610e6e565b610b70576040517f08c379a0000000000000000000000000000000000000000000000000000000008152600401610b6790612911565b60405180910390fd5b6000600660008481526020019081526020016000208054610b9090612c81565b80601f0160208091040260200160405190810160405280929190818152602001828054610bbc90612c81565b8015610c095780601f10610bde57610100808354040283529160200191610c09565b820191906000526020600020905b815481529060010190602001808311610bec57829003601f168201915b505050505090506000610c1a6117af565b9050600081511415610c30578192505050610c73565b600082511115610c65578082604051602001610c4d929190612662565b60405160208183030381529060405292505050610c73565b610c6e846117c6565b925050505b919050565b6000600560008473ffffffffffffffffffffffffffffffffffffffff1673ffffffffffffffffffffffffffffffffffffffff16815260200190815260200160002060008373ffffffffffffffffffffffffffffffffffffffff1673ffffffffffffffffffffffffffffffffffffffff16815260200190815260200160002060009054906101000a900460ff16905092915050565b610d14610eda565b73ffffffffffffffffffffffffffffffffffffffff16610d326108ef565b73ffffffffffffffffffffffffffffffffffffffff1614610d88576040517f08c379a0000000000000000000000000000000000000000000000000000000008152600401610d7f90612951565b60405180910390fd5b600073ffffffffffffffffffffffffffffffffffffffff168173ffffffffffffffffffffffffffffffffffffffff161415610df8576040517f08c379a0000000000000000000000000000000000000000000000000000000008152600401610def906127b1565b60405180910390fd5b610e01816112e0565b50565b60007f01ffc9a7000000000000000000000000000000000000000000000000000000007bffffffffffffffffffffffffffffffffffffffffffffffffffffffff1916827bffffffffffffffffffffffffffffffffffffffffffffffffffffffff1916149050919050565b60008073ffffffffffffffffffffffffffffffffffffffff166002600084815260200190815260200160002060009054906101000a900473ffffffffffffffffffffffffffffffffffffffff1673ffffffffffffffffffffffffffffffffffffffff1614159050919050565b600033905090565b816004600083815260200190815260200160002060006101000a81548173ffffffffffffffffffffffffffffffffffffffff021916908373ffffffffffffffffffffffffffffffffffffffff160217905550808273ffffffffffffffffffffffffffffffffffffffff16610f55836106fd565b73ffffffffffffffffffffffffffffffffffffffff167f8c5be1e5ebec7d5bd14f71427d1e84f3dd0314c0f7b2291e5b200ac8c7c3b92560405160405180910390a45050565b6000610fa682610e6e565b610fe5576040517f08c379a0000000000000000000000000000000000000000000000000000000008152600401610fdc90612851565b60405180910390fd5b6000610ff0836106fd565b90508073ffffffffffffffffffffffffffffffffffffffff168473ffffffffffffffffffffffffffffffffffffffff16148061103257506110318185610c78565b5b8061107057508373ffffffffffffffffffffffffffffffffffffffff16611058846104e0565b73ffffffffffffffffffffffffffffffffffffffff16145b91505092915050565b8273ffffffffffffffffffffffffffffffffffffffff16611099826106fd565b73ffffffffffffffffffffffffffffffffffffffff16146110ef576040517f08c379a00000000000000000000000000000000000000000000000000000000081526004016110e6906127d1565b60405180910390fd5b600073ffffffffffffffffffffffffffffffffffffffff168273ffffffffffffffffffffffffffffffffffffffff16141561115f576040517f08c379a000000000000000000000000000000000000000000000000000000000815260040161115690612811565b60405180910390fd5b61116a83838361186d565b611175600082610ee2565b6001600360008573ffffffffffffffffffffffffffffffffffffffff1673ffffffffffffffffffffffffffffffffffffffff16815260200190815260200160002060008282546111c59190612b97565b925050819055506001600360008473ffffffffffffffffffffffffffffffffffffffff1673ffffffffffffffffffffffffffffffffffffffff168152602001908152602001600020600082825461121c9190612ab6565b92505081905550816002600083815260200190815260200160002060006101000a81548173ffffffffffffffffffffffffffffffffffffffff021916908373ffffffffffffffffffffffffffffffffffffffff160217905550808273ffffffffffffffffffffffffffffffffffffffff168473ffffffffffffffffffffffffffffffffffffffff167fddf252ad1be2c89b69c2b068fc378daa952ba7f163c4a11628f55a4df523b3ef60405160405180910390a46112db838383611872565b505050565b6000600760009054906101000a900473ffffffffffffffffffffffffffffffffffffffff16905081600760006101000a81548173ffffffffffffffffffffffffffffffffffffffff021916908373ffffffffffffffffffffffffffffffffffffffff1602179055508173ffffffffffffffffffffffffffffffffffffffff168173ffffffffffffffffffffffffffffffffffffffff167f8be0079c531659141344cd1fd0a4f28419497f9722a3daafe3b4186f6b6457e060405160405180910390a35050565b8173ffffffffffffffffffffffffffffffffffffffff168373ffffffffffffffffffffffffffffffffffffffff161415611415576040517f08c379a000000000000000000000000000000000000000000000000000000000815260040161140c90612831565b60405180910390fd5b80600560008573ffffffffffffffffffffffffffffffffffffffff1673ffffffffffffffffffffffffffffffffffffffff16815260200190815260200160002060008473ffffffffffffffffffffffffffffffffffffffff1673ffffffffffffffffffffffffffffffffffffffff16815260200190815260200160002060006101000a81548160ff0219169083151502179055508173ffffffffffffffffffffffffffffffffffffffff168373ffffffffffffffffffffffffffffffffffffffff167f17307eab39ab6107e8899845ad3d59bd9653f200f220920489ca2b5937696c31836040516115069190612754565b60405180910390a3505050565b6001816000016000828254019250508190555050565b600081600001549050919050565b611551828260405180602001604052806000815250611877565b5050565b6060600082511415611578576040518060200160405280600081525090506116da565b600060405180606001604052806040815260200161342260409139905060006003600285516115a79190612ab6565b6115b19190612b0c565b60046115bd9190612b3d565b67ffffffffffffffff8111156115fc577f4e487b7100000000000000000000000000000000000000000000000000000000600052604160045260246000fd5b6040519080825280601f01601f19166020018201604052801561162e5781602001600182028036833780820191505090505b509050600182016020820185865187015b8082101561169a576003820191508151603f8160121c168501518453600184019350603f81600c1c168501518453600184019350603f8160061c168501518453600184019350603f811685015184536001840193505061163f565b50506003865106600181146116b657600281146116c9576116d1565b603d6001830353603d60028303536116d1565b603d60018303535b50505080925050505b919050565b6116e882610e6e565b611727576040517f08c379a000000000000000000000000000000000000000000000000000000000815260040161171e906128d1565b60405180910390fd5b8060066000848152602001908152602001600020908051906020019061174e929190611e13565b505050565b61175e848484611079565b61176a848484846118d2565b6117a9576040517f08c379a00000000000000000000000000000000000000000000000000000000081526004016117a090612791565b60405180910390fd5b50505050565b606060405180602001604052806000815250905090565b60606117d182610e6e565b611810576040517f08c379a000000000000000000000000000000000000000000000000000000000815260040161180790612971565b60405180910390fd5b600061181a6117af565b9050600081511161183a5760405180602001604052806000815250611865565b8061184484611a69565b604051602001611855929190612662565b6040516020818303038152906040525b915050919050565b505050565b505050565b6118818383611c16565b61188e60008484846118d2565b6118cd576040517f08c379a00000000000000000000000000000000000000000000000000000000081526004016118c490612791565b60405180910390fd5b505050565b60006118f38473ffffffffffffffffffffffffffffffffffffffff16611df0565b15611a5c578373ffffffffffffffffffffffffffffffffffffffff1663150b7a0261191c610eda565b8786866040518563ffffffff1660e01b815260040161193e9493929190612708565b602060405180830381600087803b15801561195857600080fd5b505af192505050801561198957506040513d601f19601f82011682018060405250810190611986919061223e565b60015b611a0c573d80600081146119b9576040519150601f19603f3d011682016040523d82523d6000602084013e6119be565b606091505b50600081511415611a04576040517f08c379a00000000000000000000000000000000000000000000000000000000081526004016119fb90612791565b60405180910390fd5b805181602001fd5b63150b7a0260e01b7bffffffffffffffffffffffffffffffffffffffffffffffffffffffff1916817bffffffffffffffffffffffffffffffffffffffffffffffffffffffff191614915050611a61565b600190505b949350505050565b60606000821415611ab1576040518060400160405280600181526020017f30000000000000000000000000000000000000000000000000000000000000008152509050611c11565b600082905060005b60008214611ae3578080611acc90612ce4565b915050600a82611adc9190612b0c565b9150611ab9565b60008167ffffffffffffffff811115611b25577f4e487b7100000000000000000000000000000000000000000000000000000000600052604160045260246000fd5b6040519080825280601f01601f191660200182016040528015611b575781602001600182028036833780820191505090505b5090505b60008514611c0a57600182611b709190612b97565b9150600a85611b7f9190612d2d565b6030611b8b9190612ab6565b60f81b818381518110611bc7577f4e487b7100000000000000000000000000000000000000000000000000000000600052603260045260246000fd5b60200101907effffffffffffffffffffffffffffffffffffffffffffffffffffffffffffff1916908160001a905350600a85611c039190612b0c565b9450611b5b565b8093505050505b919050565b600073ffffffffffffffffffffffffffffffffffffffff168273ffffffffffffffffffffffffffffffffffffffff161415611c86576040517f08c379a0000000000000000000000000000000000000000000000000000000008152600401611c7d906128f1565b60405180910390fd5b611c8f81610e6e565b15611ccf576040517f08c379a0000000000000000000000000000000000000000000000000000000008152600401611cc6906127f1565b60405180910390fd5b611cdb6000838361186d565b6001600360008473ffffffffffffffffffffffffffffffffffffffff1673ffffffffffffffffffffffffffffffffffffffff1681526020019081526020016000206000828254611d2b9190612ab6565b92505081905550816002600083815260200190815260200160002060006101000a81548173ffffffffffffffffffffffffffffffffffffffff021916908373ffffffffffffffffffffffffffffffffffffffff160217905550808273ffffffffffffffffffffffffffffffffffffffff16600073ffffffffffffffffffffffffffffffffffffffff167fddf252ad1be2c89b69c2b068fc378daa952ba7f163c4a11628f55a4df523b3ef60405160405180910390a4611dec60008383611872565b5050565b6000808273ffffffffffffffffffffffffffffffffffffffff163b119050919050565b828054611e1f90612c81565b90600052602060002090601f016020900481019282611e415760008555611e88565b82601f10611e5a57805160ff1916838001178555611e88565b82800160010185558215611e88579182015b82811115611e87578251825591602001919060010190611e6c565b5b509050611e959190611e99565b5090565b5b80821115611eb2576000816000905550600101611e9a565b5090565b6000611ec9611ec484612a11565b6129ec565b905082815260208101848484011115611ee157600080fd5b611eec848285612c3f565b509392505050565b6000611f07611f0284612a42565b6129ec565b905082815260208101848484011115611f1f57600080fd5b611f2a848285612c3f565b509392505050565b600081359050611f41816133c5565b92915050565b600081359050611f56816133dc565b92915050565b600081359050611f6b816133f3565b92915050565b600081519050611f80816133f3565b92915050565b600082601f830112611f9757600080fd5b8135611fa7848260208601611eb6565b91505092915050565b600082601f830112611fc157600080fd5b8135611fd1848260208601611ef4565b91505092915050565b600081359050611fe98161340a565b92915050565b60006020828403121561200157600080fd5b600061200f84828501611f32565b91505092915050565b6000806040838503121561202b57600080fd5b600061203985828601611f32565b925050602061204a85828601611f32565b9150509250929050565b60008060006060848603121561206957600080fd5b600061207786828701611f32565b935050602061208886828701611f32565b925050604061209986828701611fda565b9150509250925092565b600080600080608085870312156120b957600080fd5b60006120c787828801611f32565b94505060206120d887828801611f32565b93505060406120e987828801611fda565b925050606085013567ffffffffffffffff81111561210657600080fd5b61211287828801611f86565b91505092959194509250565b6000806040838503121561213157600080fd5b600061213f85828601611f32565b925050602061215085828601611f47565b9150509250929050565b60008060006060848603121561216f57600080fd5b600061217d86828701611f32565b935050602084013567ffffffffffffffff81111561219a57600080fd5b6121a686828701611fb0565b925050604084013567ffffffffffffffff8111156121c357600080fd5b6121cf86828701611fb0565b9150509250925092565b600080604083850312156121ec57600080fd5b60006121fa85828601611f32565b925050602061220b85828601611fda565b9150509250929050565b60006020828403121561222757600080fd5b600061223584828501611f5c565b91505092915050565b60006020828403121561225057600080fd5b600061225e84828501611f71565b91505092915050565b60006020828403121561227957600080fd5b600061228784828501611fda565b91505092915050565b61229981612bcb565b82525050565b6122a881612bdd565b82525050565b60006122b982612a73565b6122c38185612a89565b93506122d3818560208601612c4e565b6122dc81612e1a565b840191505092915050565b60006122f282612a7e565b6122fc8185612a9a565b935061230c818560208601612c4e565b61231581612e1a565b840191505092915050565b600061232b82612a7e565b6123358185612aab565b9350612345818560208601612c4e565b80840191505092915050565b600061235e603283612a9a565b915061236982612e2b565b604082019050919050565b6000612381602683612a9a565b915061238c82612e7a565b604082019050919050565b60006123a4602583612a9a565b91506123af82612ec9565b604082019050919050565b60006123c7601c83612a9a565b91506123d282612f18565b602082019050919050565b60006123ea602483612a9a565b91506123f582612f41565b604082019050919050565b600061240d601983612a9a565b915061241882612f90565b602082019050919050565b6000612430602c83612a9a565b915061243b82612fb9565b604082019050919050565b6000612453603883612a9a565b915061245e82613008565b604082019050919050565b6000612476602a83612a9a565b915061248182613057565b604082019050919050565b6000612499602983612a9a565b91506124a4826130a6565b604082019050919050565b60006124bc602e83612a9a565b91506124c7826130f5565b604082019050919050565b60006124df600283612aab565b91506124ea82613144565b600282019050919050565b6000612502602083612a9a565b915061250d8261316d565b602082019050919050565b6000612525603183612a9a565b915061253082613196565b604082019050919050565b6000612548602c83612a9a565b9150612553826131e5565b604082019050919050565b600061256b601483612aab565b915061257682613234565b601482019050919050565b600061258e602083612a9a565b91506125998261325d565b602082019050919050565b60006125b1602f83612a9a565b91506125bc82613286565b604082019050919050565b60006125d4602183612a9a565b91506125df826132d5565b604082019050919050565b60006125f7601d83612aab565b915061260282613324565b601d82019050919050565b600061261a600f83612aab565b91506126258261334d565b600f82019050919050565b600061263d603183612a9a565b915061264882613376565b604082019050919050565b61265c81612c35565b82525050565b600061266e8285612320565b915061267a8284612320565b91508190509392505050565b6000612691826125ea565b915061269d8284612320565b915081905092915050565b60006126b38261260d565b91506126bf8285612320565b91506126ca8261255e565b91506126d68284612320565b91506126e1826124d2565b91508190509392505050565b60006020820190506127026000830184612290565b92915050565b600060808201905061271d6000830187612290565b61272a6020830186612290565b6127376040830185612653565b818103606083015261274981846122ae565b905095945050505050565b6000602082019050612769600083018461229f565b92915050565b6000602082019050818103600083015261278981846122e7565b905092915050565b600060208201905081810360008301526127aa81612351565b9050919050565b600060208201905081810360008301526127ca81612374565b9050919050565b600060208201905081810360008301526127ea81612397565b9050919050565b6000602082019050818103600083015261280a816123ba565b9050919050565b6000602082019050818103600083015261282a816123dd565b9050919050565b6000602082019050818103600083015261284a81612400565b9050919050565b6000602082019050818103600083015261286a81612423565b9050919050565b6000602082019050818103600083015261288a81612446565b9050919050565b600060208201905081810360008301526128aa81612469565b9050919050565b600060208201905081810360008301526128ca8161248c565b9050919050565b600060208201905081810360008301526128ea816124af565b9050919050565b6000602082019050818103600083015261290a816124f5565b9050919050565b6000602082019050818103600083015261292a81612518565b9050919050565b6000602082019050818103600083015261294a8161253b565b9050919050565b6000602082019050818103600083015261296a81612581565b9050919050565b6000602082019050818103600083015261298a816125a4565b9050919050565b600060208201905081810360008301526129aa816125c7565b9050919050565b600060208201905081810360008301526129ca81612630565b9050919050565b60006020820190506129e66000830184612653565b92915050565b60006129f6612a07565b9050612a028282612cb3565b919050565b6000604051905090565b600067ffffffffffffffff821115612a2c57612a2b612deb565b5b612a3582612e1a565b9050602081019050919050565b600067ffffffffffffffff821115612a5d57612a5c612deb565b5b612a6682612e1a565b9050602081019050919050565b600081519050919050565b600081519050919050565b600082825260208201905092915050565b600082825260208201905092915050565b600081905092915050565b6000612ac182612c35565b9150612acc83612c35565b9250827fffffffffffffffffffffffffffffffffffffffffffffffffffffffffffffffff03821115612b0157612b00612d5e565b5b828201905092915050565b6000612b1782612c35565b9150612b2283612c35565b925082612b3257612b31612d8d565b5b828204905092915050565b6000612b4882612c35565b9150612b5383612c35565b9250817fffffffffffffffffffffffffffffffffffffffffffffffffffffffffffffffff0483118215151615612b8c57612b8b612d5e565b5b828202905092915050565b6000612ba282612c35565b9150612bad83612c35565b925082821015612bc057612bbf612d5e565b5b828203905092915050565b6000612bd682612c15565b9050919050565b60008115159050919050565b60007fffffffff0000000000000000000000000000000000000000000000000000000082169050919050565b600073ffffffffffffffffffffffffffffffffffffffff82169050919050565b6000819050919050565b82818337600083830152505050565b60005b83811015612c6c578082015181840152602081019050612c51565b83811115612c7b576000848401525b50505050565b60006002820490506001821680612c9957607f821691505b60208210811415612cad57612cac612dbc565b5b50919050565b612cbc82612e1a565b810181811067ffffffffffffffff82111715612cdb57612cda612deb565b5b80604052505050565b6000612cef82612c35565b91507fffffffffffffffffffffffffffffffffffffffffffffffffffffffffffffffff821415612d2257612d21612d5e565b5b600182019050919050565b6000612d3882612c35565b9150612d4383612c35565b925082612d5357612d52612d8d565b5b828206905092915050565b7f4e487b7100000000000000000000000000000000000000000000000000000000600052601160045260246000fd5b7f4e487b7100000000000000000000000000000000000000000000000000000000600052601260045260246000fd5b7f4e487b7100000000000000000000000000000000000000000000000000000000600052602260045260246000fd5b7f4e487b7100000000000000000000000000000000000000000000000000000000600052604160045260246000fd5b6000601f19601f8301169050919050565b7f4552433732313a207472616e7366657220746f206e6f6e20455243373231526560008201527f63656976657220696d706c656d656e7465720000000000000000000000000000602082015250565b7f4f776e61626c653a206e6577206f776e657220697320746865207a65726f206160008201527f6464726573730000000000000000000000000000000000000000000000000000602082015250565b7f4552433732313a207472616e736665722066726f6d20696e636f72726563742060008201527f6f776e6572000000000000000000000000000000000000000000000000000000602082015250565b7f4552433732313a20746f6b656e20616c7265616479206d696e74656400000000600082015250565b7f4552433732313a207472616e7366657220746f20746865207a65726f2061646460008201527f7265737300000000000000000000000000000000000000000000000000000000602082015250565b7f4552433732313a20617070726f766520746f2063616c6c657200000000000000600082015250565b7f4552433732313a206f70657261746f7220717565727920666f72206e6f6e657860008201527f697374656e7420746f6b656e0000000000000000000000000000000000000000602082015250565b7f4552433732313a20617070726f76652063616c6c6572206973206e6f74206f7760008201527f6e6572206e6f7220617070726f76656420666f7220616c6c0000000000000000602082015250565b7f4552433732313a2062616c616e636520717565727920666f7220746865207a6560008201527f726f206164647265737300000000000000000000000000000000000000000000602082015250565b7f4552433732313a206f776e657220717565727920666f72206e6f6e657869737460008201527f656e7420746f6b656e0000000000000000000000000000000000000000000000602082015250565b7f45524337323155524953746f726167653a2055524920736574206f66206e6f6e60008201527f6578697374656e7420746f6b656e000000000000000000000000000000000000602082015250565b7f227d000000000000000000000000000000000000000000000000000000000000600082015250565b7f4552433732313a206d696e7420746f20746865207a65726f2061646472657373600082015250565b7f45524337323155524953746f726167653a2055524920717565727920666f722060008201527f6e6f6e6578697374656e7420746f6b656e000000000000000000000000000000602082015250565b7f4552433732313a20617070726f76656420717565727920666f72206e6f6e657860008201527f697374656e7420746f6b656e0000000000000000000000000000000000000000602082015250565b7f222c2022656e637279707465644b6579223a2022000000000000000000000000600082015250565b7f4f776e61626c653a2063616c6c6572206973206e6f7420746865206f776e6572600082015250565b7f4552433732314d657461646174613a2055524920717565727920666f72206e6f60008201527f6e6578697374656e7420746f6b656e0000000000000000000000000000000000602082015250565b7f4552433732313a20617070726f76616c20746f2063757272656e74206f776e6560008201527f7200000000000000000000000000000000000000000000000000000000000000602082015250565b7f646174613a6170706c69636174696f6e2f6a736f6e3b6261736536342c000000600082015250565b7f7b22636f6e74656e744944223a20220000000000000000000000000000000000600082015250565b7f4552433732313a207472616e736665722063616c6c6572206973206e6f74206f60008201527f776e6572206e6f7220617070726f766564000000000000000000000000000000602082015250565b6133ce81612bcb565b81146133d957600080fd5b50565b6133e581612bdd565b81146133f057600080fd5b50565b6133fc81612be9565b811461340757600080fd5b50565b61341381612c35565b811461341e57600080fd5b5056fe4142434445464748494a4b4c4d4e4f505152535455565758595a6162636465666768696a6b6c6d6e6f707172737475767778797a303132333435363738392b2fa2646970667358221220b87b426ef91c6bf4e6b2cecbb65a62d36044a5e50770409b6dcba3178943abc764736f6c63430008010033",
  "linkReferences": {},
  "deployedLinkReferences": {}
}