{
  "_format": "hh-sol-artifact-1",
  "contractName": "ContentNFT",
  "sourceName": "contracts/ContentNFT.sol",
  "abi": [
    {
      "inputs": [],
      "stateMutability": "nonpayable",
      "type": "constructor"
    },
    {
      "anonymous": false,
      "inputs": [
        {
          "indexed": true,
          "internalType": "address",
          "name": "owner",
          "type": "address"
        },
        {
          "indexed": true,
          "internalType": "address",
          "name": "approved",
          "type": "address"
        },
        {
          "indexed": true,
          "internalType": "uint256",
          "name": "tokenId",
          "type": "uint256"
        }
      ],
      "name": "Approval",
      "type": "event"
    },
    {
      "anonymous": false,
      "inputs": [
        {
          "indexed": true,
          "internalType": "address",
          "name": "owner",
          "type": "address"
        },
        {
          "indexed": true,
          "internalType": "address",
          "name": "operator",
          "type": "address"
        },
        {
          "indexed": false,
          "internalType": "bool",
          "name": "approved",
          "type": "bool"
        }
      ],
      "name": "ApprovalForAll",
      "type": "event"
    },
    {
      "anonymous": false,
      "inputs": [
        {
          "indexed": true,
          "internalType": "address",
          "name": "previousOwner",
          "type": "address"
        },
        {
          "indexed": true,
          "internalType": "address",
          "name": "newOwner",
          "type": "address"
        }
      ],
      "name": "OwnershipTransferred",
      "type": "event"
    },
    {
      "anonymous": false,
      "inputs": [
        {
          "indexed": true,
          "internalType": "address",
          "name": "from",
          "type": "address"
        },
        {
          "indexed": true,
          "internalType": "address",
          "name": "to",
          "type": "address"
        },
        {
          "indexed": true,
          "internalType": "uint256",
          "name": "tokenId",
          "type": "uint256"
        }
      ],
      "name": "Transfer",
      "type": "event"
    },
    {
      "inputs": [
        {
          "internalType": "address",
          "name": "to",
          "type": "address"
        },
        {
          "internalType": "uint256",
          "name": "tokenId",
          "type": "uint256"
        }
      ],
      "name": "approve",
      "outputs": [],
      "stateMutability": "nonpayable",
      "type": "function"
    },
    {
      "inputs": [
        {
          "internalType": "address",
          "name": "owner",
          "type": "address"
        }
      ],
      "name": "balanceOf",
      "outputs": [
        {
          "internalType": "uint256",
          "name": "",
          "type": "uint256"
        }
      ],
      "stateMutability": "view",
      "type": "function"
    },
    {
      "inputs": [
        {
          "internalType": "uint256",
          "name": "tokenId",
          "type": "uint256"
        }
      ],
      "name": "getApproved",
      "outputs": [
        {
          "internalType": "address",
          "name": "",
          "type": "address"
        }
      ],
      "stateMutability": "view",
      "type": "function"
    },
    {
      "inputs": [
        {
          "internalType": "address",
          "name": "owner",
          "type": "address"
        },
        {
          "internalType": "address",
          "name": "operator",
          "type": "address"
        }
      ],
      "name": "isApprovedForAll",
      "outputs": [
        {
          "internalType": "bool",
          "name": "",
          "type": "bool"
        }
      ],
      "stateMutability": "view",
      "type": "function"
    },
    {
      "inputs": [
        {
          "internalType": "address",
          "name": "recipient",
          "type": "address"
        },
        {
          "internalType": "string",
          "name": "contentName",
          "type": "string"
        },
        {
          "internalType": "string",
          "name": "author",
          "type": "string"
        },
        {
          "internalType": "string",
          "name": "loc",
          "type": "string"
        }
      ],
      "name": "mintNFT",
      "outputs": [
        {
          "internalType": "uint256",
          "name": "",
          "type": "uint256"
        }
      ],
      "stateMutability": "nonpayable",
      "type": "function"
    },
    {
      "inputs": [],
      "name": "name",
      "outputs": [
        {
          "internalType": "string",
          "name": "",
          "type": "string"
        }
      ],
      "stateMutability": "view",
      "type": "function"
    },
    {
      "inputs": [],
      "name": "owner",
      "outputs": [
        {
          "internalType": "address",
          "name": "",
          "type": "address"
        }
      ],
      "stateMutability": "view",
      "type": "function"
    },
    {
      "inputs": [
        {
          "internalType": "uint256",
          "name": "tokenId",
          "type": "uint256"
        }
      ],
      "name": "ownerOf",
      "outputs": [
        {
          "internalType": "address",
          "name": "",
          "type": "address"
        }
      ],
      "stateMutability": "view",
      "type": "function"
    },
    {
      "inputs": [],
      "name": "renounceOwnership",
      "outputs": [],
      "stateMutability": "nonpayable",
      "type": "function"
    },
    {
      "inputs": [
        {
          "internalType": "address",
          "name": "from",
          "type": "address"
        },
        {
          "internalType": "address",
          "name": "to",
          "type": "address"
        },
        {
          "internalType": "uint256",
          "name": "tokenId",
          "type": "uint256"
        }
      ],
      "name": "safeTransferFrom",
      "outputs": [],
      "stateMutability": "nonpayable",
      "type": "function"
    },
    {
      "inputs": [
        {
          "internalType": "address",
          "name": "from",
          "type": "address"
        },
        {
          "internalType": "address",
          "name": "to",
          "type": "address"
        },
        {
          "internalType": "uint256",
          "name": "tokenId",
          "type": "uint256"
        },
        {
          "internalType": "bytes",
          "name": "_data",
          "type": "bytes"
        }
      ],
      "name": "safeTransferFrom",
      "outputs": [],
      "stateMutability": "nonpayable",
      "type": "function"
    },
    {
      "inputs": [
        {
          "internalType": "address",
          "name": "operator",
          "type": "address"
        },
        {
          "internalType": "bool",
          "name": "approved",
          "type": "bool"
        }
      ],
      "name": "setApprovalForAll",
      "outputs": [],
      "stateMutability": "nonpayable",
      "type": "function"
    },
    {
      "inputs": [
        {
          "internalType": "bytes4",
          "name": "interfaceId",
          "type": "bytes4"
        }
      ],
      "name": "supportsInterface",
      "outputs": [
        {
          "internalType": "bool",
          "name": "",
          "type": "bool"
        }
      ],
      "stateMutability": "view",
      "type": "function"
    },
    {
      "inputs": [],
      "name": "symbol",
      "outputs": [
        {
          "internalType": "string",
          "name": "",
          "type": "string"
        }
      ],
      "stateMutability": "view",
      "type": "function"
    },
    {
      "inputs": [
        {
          "internalType": "uint256",
          "name": "tokenId",
          "type": "uint256"
        }
      ],
      "name": "tokenURI",
      "outputs": [
        {
          "internalType": "string",
          "name": "",
          "type": "string"
        }
      ],
      "stateMutability": "view",
      "type": "function"
    },
    {
      "inputs": [
        {
          "internalType": "address",
          "name": "from",
          "type": "address"
        },
        {
          "internalType": "address",
          "name": "to",
          "type": "address"
        },
        {
          "internalType": "uint256",
          "name": "tokenId",
          "type": "uint256"
        }
      ],
      "name": "transferFrom",
      "outputs": [],
      "stateMutability": "nonpayable",
      "type": "function"
    },
    {
      "inputs": [
        {
          "internalType": "address",
          "name": "newOwner",
          "type": "address"
        }
      ],
      "name": "transferOwnership",
      "outputs": [],
      "stateMutability": "nonpayable",
      "type": "function"
    }
  ],
  "bytecode": "0x60806040523480156200001157600080fd5b506040518060400160405280600a81526020017f436f6e74656e744e4654000000000000000000000000000000000000000000008152506040518060400160405280600381526020017f4e46540000000000000000000000000000000000000000000000000000000000815250816000908051906020019062000096929190620001a6565b508060019080519060200190620000af929190620001a6565b505050620000d2620000c6620000d860201b60201c565b620000e060201b60201c565b620002bb565b600033905090565b6000600760009054906101000a900473ffffffffffffffffffffffffffffffffffffffff16905081600760006101000a81548173ffffffffffffffffffffffffffffffffffffffff021916908373ffffffffffffffffffffffffffffffffffffffff1602179055508173ffffffffffffffffffffffffffffffffffffffff168173ffffffffffffffffffffffffffffffffffffffff167f8be0079c531659141344cd1fd0a4f28419497f9722a3daafe3b4186f6b6457e060405160405180910390a35050565b828054620001b49062000256565b90600052602060002090601f016020900481019282620001d8576000855562000224565b82601f10620001f357805160ff191683800117855562000224565b8280016001018555821562000224579182015b828111156200022357825182559160200191906001019062000206565b5b50905062000233919062000237565b5090565b5b808211156200025257600081600090555060010162000238565b5090565b600060028204905060018216806200026f57607f821691505b602082108114156200028657620002856200028c565b5b50919050565b7f4e487b7100000000000000000000000000000000000000000000000000000000600052602260045260246000fd5b61352a80620002cb6000396000f3fe608060405234801561001057600080fd5b506004361061010b5760003560e01c8063715018a6116100a2578063a22cb46511610071578063a22cb465146102b8578063b88d4fde146102d4578063c87b56dd146102f0578063e985e9c514610320578063f2fde38b146103505761010b565b8063715018a6146102425780637791d3f31461024c5780638da5cb5b1461027c57806395d89b411461029a5761010b565b806323b872dd116100de57806323b872dd146101aa57806342842e0e146101c65780636352211e146101e257806370a08231146102125761010b565b806301ffc9a71461011057806306fdde0314610140578063081812fc1461015e578063095ea7b31461018e575b600080fd5b61012a60048036038101906101259190612244565b61036c565b60405161013791906127be565b60405180910390f35b61014861044e565b60405161015591906127d9565b60405180910390f35b61017860048036038101906101739190612296565b6104e0565b6040516101859190612757565b60405180910390f35b6101a860048036038101906101a39190612208565b610565565b005b6101c460048036038101906101bf9190612057565b61067d565b005b6101e060048036038101906101db9190612057565b6106dd565b005b6101fc60048036038101906101f79190612296565b6106fd565b6040516102099190612757565b60405180910390f35b61022c60048036038101906102279190611ff2565b6107af565b6040516102399190612a3b565b60405180910390f35b61024a610867565b005b6102666004803603810190610261919061215d565b6108ef565b6040516102739190612a3b565b60405180910390f35b6102846109f5565b6040516102919190612757565b60405180910390f35b6102a2610a1f565b6040516102af91906127d9565b60405180910390f35b6102d260048036038101906102cd9190612121565b610ab1565b005b6102ee60048036038101906102e991906120a6565b610ac7565b005b61030a60048036038101906103059190612296565b610b29565b60405161031791906127d9565b60405180910390f35b61033a6004803603810190610335919061201b565b610c7b565b60405161034791906127be565b60405180910390f35b61036a60048036038101906103659190611ff2565b610d0f565b005b60007f80ac58cd000000000000000000000000000000000000000000000000000000007bffffffffffffffffffffffffffffffffffffffffffffffffffffffff1916827bffffffffffffffffffffffffffffffffffffffffffffffffffffffff1916148061043757507f5b5e139f000000000000000000000000000000000000000000000000000000007bffffffffffffffffffffffffffffffffffffffffffffffffffffffff1916827bffffffffffffffffffffffffffffffffffffffffffffffffffffffff1916145b80610447575061044682610e07565b5b9050919050565b60606000805461045d90612ceb565b80601f016020809104026020016040519081016040528092919081815260200182805461048990612ceb565b80156104d65780601f106104ab576101008083540402835291602001916104d6565b820191906000526020600020905b8154815290600101906020018083116104b957829003601f168201915b5050505050905090565b60006104eb82610e71565b61052a576040517f08c379a00000000000000000000000000000000000000000000000000000000081526004016105219061299b565b60405180910390fd5b6004600083815260200190815260200160002060009054906101000a900473ffffffffffffffffffffffffffffffffffffffff169050919050565b6000610570826106fd565b90508073ffffffffffffffffffffffffffffffffffffffff168373ffffffffffffffffffffffffffffffffffffffff1614156105e1576040517f08c379a00000000000000000000000000000000000000000000000000000000081526004016105d8906129fb565b60405180910390fd5b8073ffffffffffffffffffffffffffffffffffffffff16610600610edd565b73ffffffffffffffffffffffffffffffffffffffff16148061062f575061062e81610629610edd565b610c7b565b5b61066e576040517f08c379a0000000000000000000000000000000000000000000000000000000008152600401610665906128db565b60405180910390fd5b6106788383610ee5565b505050565b61068e610688610edd565b82610f9e565b6106cd576040517f08c379a00000000000000000000000000000000000000000000000000000000081526004016106c490612a1b565b60405180910390fd5b6106d883838361107c565b505050565b6106f883838360405180602001604052806000815250610ac7565b505050565b6000806002600084815260200190815260200160002060009054906101000a900473ffffffffffffffffffffffffffffffffffffffff169050600073ffffffffffffffffffffffffffffffffffffffff168173ffffffffffffffffffffffffffffffffffffffff1614156107a6576040517f08c379a000000000000000000000000000000000000000000000000000000000815260040161079d9061291b565b60405180910390fd5b80915050919050565b60008073ffffffffffffffffffffffffffffffffffffffff168273ffffffffffffffffffffffffffffffffffffffff161415610820576040517f08c379a0000000000000000000000000000000000000000000000000000000008152600401610817906128fb565b60405180910390fd5b600360008373ffffffffffffffffffffffffffffffffffffffff1673ffffffffffffffffffffffffffffffffffffffff168152602001908152602001600020549050919050565b61086f610edd565b73ffffffffffffffffffffffffffffffffffffffff1661088d6109f5565b73ffffffffffffffffffffffffffffffffffffffff16146108e3576040517f08c379a00000000000000000000000000000000000000000000000000000000081526004016108da906129bb565b60405180910390fd5b6108ed60006112e3565b565b60006108f9610edd565b73ffffffffffffffffffffffffffffffffffffffff166109176109f5565b73ffffffffffffffffffffffffffffffffffffffff161461096d576040517f08c379a0000000000000000000000000000000000000000000000000000000008152600401610964906129bb565b60405180910390fd5b61097760086113a9565b600061098360086113bf565b905061098f86826113cd565b60008585856040516020016109a6939291906126d8565b60405160208183030381529060405290506109e8826109c4836113eb565b6040516020016109d49190612735565b604051602081830303815290604052611575565b8192505050949350505050565b6000600760009054906101000a900473ffffffffffffffffffffffffffffffffffffffff16905090565b606060018054610a2e90612ceb565b80601f0160208091040260200160405190810160405280929190818152602001828054610a5a90612ceb565b8015610aa75780601f10610a7c57610100808354040283529160200191610aa7565b820191906000526020600020905b815481529060010190602001808311610a8a57829003601f168201915b5050505050905090565b610ac3610abc610edd565b83836115e9565b5050565b610ad8610ad2610edd565b83610f9e565b610b17576040517f08c379a0000000000000000000000000000000000000000000000000000000008152600401610b0e90612a1b565b60405180910390fd5b610b2384848484611756565b50505050565b6060610b3482610e71565b610b73576040517f08c379a0000000000000000000000000000000000000000000000000000000008152600401610b6a9061297b565b60405180910390fd5b6000600660008481526020019081526020016000208054610b9390612ceb565b80601f0160208091040260200160405190810160405280929190818152602001828054610bbf90612ceb565b8015610c0c5780601f10610be157610100808354040283529160200191610c0c565b820191906000526020600020905b815481529060010190602001808311610bef57829003601f168201915b505050505090506000610c1d6117b2565b9050600081511415610c33578192505050610c76565b600082511115610c68578082604051602001610c509291906126b4565b60405160208183030381529060405292505050610c76565b610c71846117c9565b925050505b919050565b6000600560008473ffffffffffffffffffffffffffffffffffffffff1673ffffffffffffffffffffffffffffffffffffffff16815260200190815260200160002060008373ffffffffffffffffffffffffffffffffffffffff1673ffffffffffffffffffffffffffffffffffffffff16815260200190815260200160002060009054906101000a900460ff16905092915050565b610d17610edd565b73ffffffffffffffffffffffffffffffffffffffff16610d356109f5565b73ffffffffffffffffffffffffffffffffffffffff1614610d8b576040517f08c379a0000000000000000000000000000000000000000000000000000000008152600401610d82906129bb565b60405180910390fd5b600073ffffffffffffffffffffffffffffffffffffffff168173ffffffffffffffffffffffffffffffffffffffff161415610dfb576040517f08c379a0000000000000000000000000000000000000000000000000000000008152600401610df29061281b565b60405180910390fd5b610e04816112e3565b50565b60007f01ffc9a7000000000000000000000000000000000000000000000000000000007bffffffffffffffffffffffffffffffffffffffffffffffffffffffff1916827bffffffffffffffffffffffffffffffffffffffffffffffffffffffff1916149050919050565b60008073ffffffffffffffffffffffffffffffffffffffff166002600084815260200190815260200160002060009054906101000a900473ffffffffffffffffffffffffffffffffffffffff1673ffffffffffffffffffffffffffffffffffffffff1614159050919050565b600033905090565b816004600083815260200190815260200160002060006101000a81548173ffffffffffffffffffffffffffffffffffffffff021916908373ffffffffffffffffffffffffffffffffffffffff160217905550808273ffffffffffffffffffffffffffffffffffffffff16610f58836106fd565b73ffffffffffffffffffffffffffffffffffffffff167f8c5be1e5ebec7d5bd14f71427d1e84f3dd0314c0f7b2291e5b200ac8c7c3b92560405160405180910390a45050565b6000610fa982610e71565b610fe8576040517f08c379a0000000000000000000000000000000000000000000000000000000008152600401610fdf906128bb565b60405180910390fd5b6000610ff3836106fd565b90508073ffffffffffffffffffffffffffffffffffffffff168473ffffffffffffffffffffffffffffffffffffffff16148061103557506110348185610c7b565b5b8061107357508373ffffffffffffffffffffffffffffffffffffffff1661105b846104e0565b73ffffffffffffffffffffffffffffffffffffffff16145b91505092915050565b8273ffffffffffffffffffffffffffffffffffffffff1661109c826106fd565b73ffffffffffffffffffffffffffffffffffffffff16146110f2576040517f08c379a00000000000000000000000000000000000000000000000000000000081526004016110e99061283b565b60405180910390fd5b600073ffffffffffffffffffffffffffffffffffffffff168273ffffffffffffffffffffffffffffffffffffffff161415611162576040517f08c379a00000000000000000000000000000000000000000000000000000000081526004016111599061287b565b60405180910390fd5b61116d838383611870565b611178600082610ee5565b6001600360008573ffffffffffffffffffffffffffffffffffffffff1673ffffffffffffffffffffffffffffffffffffffff16815260200190815260200160002060008282546111c89190612c01565b925050819055506001600360008473ffffffffffffffffffffffffffffffffffffffff1673ffffffffffffffffffffffffffffffffffffffff168152602001908152602001600020600082825461121f9190612b20565b92505081905550816002600083815260200190815260200160002060006101000a81548173ffffffffffffffffffffffffffffffffffffffff021916908373ffffffffffffffffffffffffffffffffffffffff160217905550808273ffffffffffffffffffffffffffffffffffffffff168473ffffffffffffffffffffffffffffffffffffffff167fddf252ad1be2c89b69c2b068fc378daa952ba7f163c4a11628f55a4df523b3ef60405160405180910390a46112de838383611875565b505050565b6000600760009054906101000a900473ffffffffffffffffffffffffffffffffffffffff16905081600760006101000a81548173ffffffffffffffffffffffffffffffffffffffff021916908373ffffffffffffffffffffffffffffffffffffffff1602179055508173ffffffffffffffffffffffffffffffffffffffff168173ffffffffffffffffffffffffffffffffffffffff167f8be0079c531659141344cd1fd0a4f28419497f9722a3daafe3b4186f6b6457e060405160405180910390a35050565b6001816000016000828254019250508190555050565b600081600001549050919050565b6113e782826040518060200160405280600081525061187a565b5050565b606060008251141561140e57604051806020016040528060008152509050611570565b60006040518060600160405280604081526020016134b5604091399050600060036002855161143d9190612b20565b6114479190612b76565b60046114539190612ba7565b67ffffffffffffffff811115611492577f4e487b7100000000000000000000000000000000000000000000000000000000600052604160045260246000fd5b6040519080825280601f01601f1916602001820160405280156114c45781602001600182028036833780820191505090505b509050600182016020820185865187015b80821015611530576003820191508151603f8160121c168501518453600184019350603f81600c1c168501518453600184019350603f8160061c168501518453600184019350603f81168501518453600184019350506114d5565b505060038651066001811461154c576002811461155f57611567565b603d6001830353603d6002830353611567565b603d60018303535b50505080925050505b919050565b61157e82610e71565b6115bd576040517f08c379a00000000000000000000000000000000000000000000000000000000081526004016115b49061293b565b60405180910390fd5b806006600084815260200190815260200160002090805190602001906115e4929190611e16565b505050565b8173ffffffffffffffffffffffffffffffffffffffff168373ffffffffffffffffffffffffffffffffffffffff161415611658576040517f08c379a000000000000000000000000000000000000000000000000000000000815260040161164f9061289b565b60405180910390fd5b80600560008573ffffffffffffffffffffffffffffffffffffffff1673ffffffffffffffffffffffffffffffffffffffff16815260200190815260200160002060008473ffffffffffffffffffffffffffffffffffffffff1673ffffffffffffffffffffffffffffffffffffffff16815260200190815260200160002060006101000a81548160ff0219169083151502179055508173ffffffffffffffffffffffffffffffffffffffff168373ffffffffffffffffffffffffffffffffffffffff167f17307eab39ab6107e8899845ad3d59bd9653f200f220920489ca2b5937696c318360405161174991906127be565b60405180910390a3505050565b61176184848461107c565b61176d848484846118d5565b6117ac576040517f08c379a00000000000000000000000000000000000000000000000000000000081526004016117a3906127fb565b60405180910390fd5b50505050565b606060405180602001604052806000815250905090565b60606117d482610e71565b611813576040517f08c379a000000000000000000000000000000000000000000000000000000000815260040161180a906129db565b60405180910390fd5b600061181d6117b2565b9050600081511161183d5760405180602001604052806000815250611868565b8061184784611a6c565b6040516020016118589291906126b4565b6040516020818303038152906040525b915050919050565b505050565b505050565b6118848383611c19565b61189160008484846118d5565b6118d0576040517f08c379a00000000000000000000000000000000000000000000000000000000081526004016118c7906127fb565b60405180910390fd5b505050565b60006118f68473ffffffffffffffffffffffffffffffffffffffff16611df3565b15611a5f578373ffffffffffffffffffffffffffffffffffffffff1663150b7a0261191f610edd565b8786866040518563ffffffff1660e01b81526004016119419493929190612772565b602060405180830381600087803b15801561195b57600080fd5b505af192505050801561198c57506040513d601f19601f82011682018060405250810190611989919061226d565b60015b611a0f573d80600081146119bc576040519150601f19603f3d011682016040523d82523d6000602084013e6119c1565b606091505b50600081511415611a07576040517f08c379a00000000000000000000000000000000000000000000000000000000081526004016119fe906127fb565b60405180910390fd5b805181602001fd5b63150b7a0260e01b7bffffffffffffffffffffffffffffffffffffffffffffffffffffffff1916817bffffffffffffffffffffffffffffffffffffffffffffffffffffffff191614915050611a64565b600190505b949350505050565b60606000821415611ab4576040518060400160405280600181526020017f30000000000000000000000000000000000000000000000000000000000000008152509050611c14565b600082905060005b60008214611ae6578080611acf90612d4e565b915050600a82611adf9190612b76565b9150611abc565b60008167ffffffffffffffff811115611b28577f4e487b7100000000000000000000000000000000000000000000000000000000600052604160045260246000fd5b6040519080825280601f01601f191660200182016040528015611b5a5781602001600182028036833780820191505090505b5090505b60008514611c0d57600182611b739190612c01565b9150600a85611b829190612d97565b6030611b8e9190612b20565b60f81b818381518110611bca577f4e487b7100000000000000000000000000000000000000000000000000000000600052603260045260246000fd5b60200101907effffffffffffffffffffffffffffffffffffffffffffffffffffffffffffff1916908160001a905350600a85611c069190612b76565b9450611b5e565b8093505050505b919050565b600073ffffffffffffffffffffffffffffffffffffffff168273ffffffffffffffffffffffffffffffffffffffff161415611c89576040517f08c379a0000000000000000000000000000000000000000000000000000000008152600401611c809061295b565b60405180910390fd5b611c9281610e71565b15611cd2576040517f08c379a0000000000000000000000000000000000000000000000000000000008152600401611cc99061285b565b60405180910390fd5b611cde60008383611870565b6001600360008473ffffffffffffffffffffffffffffffffffffffff1673ffffffffffffffffffffffffffffffffffffffff1681526020019081526020016000206000828254611d2e9190612b20565b92505081905550816002600083815260200190815260200160002060006101000a81548173ffffffffffffffffffffffffffffffffffffffff021916908373ffffffffffffffffffffffffffffffffffffffff160217905550808273ffffffffffffffffffffffffffffffffffffffff16600073ffffffffffffffffffffffffffffffffffffffff167fddf252ad1be2c89b69c2b068fc378daa952ba7f163c4a11628f55a4df523b3ef60405160405180910390a4611def60008383611875565b5050565b6000808273ffffffffffffffffffffffffffffffffffffffff163b119050919050565b828054611e2290612ceb565b90600052602060002090601f016020900481019282611e445760008555611e8b565b82601f10611e5d57805160ff1916838001178555611e8b565b82800160010185558215611e8b579182015b82811115611e8a578251825591602001919060010190611e6f565b5b509050611e989190611e9c565b5090565b5b80821115611eb5576000816000905550600101611e9d565b5090565b6000611ecc611ec784612a7b565b612a56565b905082815260208101848484011115611ee457600080fd5b611eef848285612ca9565b509392505050565b6000611f0a611f0584612aac565b612a56565b905082815260208101848484011115611f2257600080fd5b611f2d848285612ca9565b509392505050565b600081359050611f4481613458565b92915050565b600081359050611f598161346f565b92915050565b600081359050611f6e81613486565b92915050565b600081519050611f8381613486565b92915050565b600082601f830112611f9a57600080fd5b8135611faa848260208601611eb9565b91505092915050565b600082601f830112611fc457600080fd5b8135611fd4848260208601611ef7565b91505092915050565b600081359050611fec8161349d565b92915050565b60006020828403121561200457600080fd5b600061201284828501611f35565b91505092915050565b6000806040838503121561202e57600080fd5b600061203c85828601611f35565b925050602061204d85828601611f35565b9150509250929050565b60008060006060848603121561206c57600080fd5b600061207a86828701611f35565b935050602061208b86828701611f35565b925050604061209c86828701611fdd565b9150509250925092565b600080600080608085870312156120bc57600080fd5b60006120ca87828801611f35565b94505060206120db87828801611f35565b93505060406120ec87828801611fdd565b925050606085013567ffffffffffffffff81111561210957600080fd5b61211587828801611f89565b91505092959194509250565b6000806040838503121561213457600080fd5b600061214285828601611f35565b925050602061215385828601611f4a565b9150509250929050565b6000806000806080858703121561217357600080fd5b600061218187828801611f35565b945050602085013567ffffffffffffffff81111561219e57600080fd5b6121aa87828801611fb3565b935050604085013567ffffffffffffffff8111156121c757600080fd5b6121d387828801611fb3565b925050606085013567ffffffffffffffff8111156121f057600080fd5b6121fc87828801611fb3565b91505092959194509250565b6000806040838503121561221b57600080fd5b600061222985828601611f35565b925050602061223a85828601611fdd565b9150509250929050565b60006020828403121561225657600080fd5b600061226484828501611f5f565b91505092915050565b60006020828403121561227f57600080fd5b600061228d84828501611f74565b91505092915050565b6000602082840312156122a857600080fd5b60006122b684828501611fdd565b91505092915050565b6122c881612c35565b82525050565b6122d781612c47565b82525050565b60006122e882612add565b6122f28185612af3565b9350612302818560208601612cb8565b61230b81612e84565b840191505092915050565b600061232182612ae8565b61232b8185612b04565b935061233b818560208601612cb8565b61234481612e84565b840191505092915050565b600061235a82612ae8565b6123648185612b15565b9350612374818560208601612cb8565b80840191505092915050565b600061238d603283612b04565b915061239882612e95565b604082019050919050565b60006123b0602683612b04565b91506123bb82612ee4565b604082019050919050565b60006123d3602583612b04565b91506123de82612f33565b604082019050919050565b60006123f6601c83612b04565b915061240182612f82565b602082019050919050565b6000612419602483612b04565b915061242482612fab565b604082019050919050565b600061243c601983612b04565b915061244782612ffa565b602082019050919050565b600061245f601183612b15565b915061246a82613023565b601182019050919050565b6000612482600e83612b15565b915061248d8261304c565b600e82019050919050565b60006124a5602c83612b04565b91506124b082613075565b604082019050919050565b60006124c8600f83612b15565b91506124d3826130c4565b600f82019050919050565b60006124eb603883612b04565b91506124f6826130ed565b604082019050919050565b600061250e602a83612b04565b91506125198261313c565b604082019050919050565b6000612531602983612b04565b915061253c8261318b565b604082019050919050565b6000612554602e83612b04565b915061255f826131da565b604082019050919050565b6000612577600283612b15565b915061258282613229565b600282019050919050565b600061259a602083612b04565b91506125a582613252565b602082019050919050565b60006125bd603183612b04565b91506125c88261327b565b604082019050919050565b60006125e0602c83612b04565b91506125eb826132ca565b604082019050919050565b6000612603602083612b04565b915061260e82613319565b602082019050919050565b6000612626602f83612b04565b915061263182613342565b604082019050919050565b6000612649602183612b04565b915061265482613391565b604082019050919050565b600061266c601d83612b15565b9150612677826133e0565b601d82019050919050565b600061268f603183612b04565b915061269a82613409565b604082019050919050565b6126ae81612c9f565b82525050565b60006126c0828561234f565b91506126cc828461234f565b91508190509392505050565b60006126e382612452565b91506126ef828661234f565b91506126fa82612475565b9150612706828561234f565b9150612711826124bb565b915061271d828461234f565b91506127288261256a565b9150819050949350505050565b60006127408261265f565b915061274c828461234f565b915081905092915050565b600060208201905061276c60008301846122bf565b92915050565b600060808201905061278760008301876122bf565b61279460208301866122bf565b6127a160408301856126a5565b81810360608301526127b381846122dd565b905095945050505050565b60006020820190506127d360008301846122ce565b92915050565b600060208201905081810360008301526127f38184612316565b905092915050565b6000602082019050818103600083015261281481612380565b9050919050565b60006020820190508181036000830152612834816123a3565b9050919050565b60006020820190508181036000830152612854816123c6565b9050919050565b60006020820190508181036000830152612874816123e9565b9050919050565b600060208201905081810360008301526128948161240c565b9050919050565b600060208201905081810360008301526128b48161242f565b9050919050565b600060208201905081810360008301526128d481612498565b9050919050565b600060208201905081810360008301526128f4816124de565b9050919050565b6000602082019050818103600083015261291481612501565b9050919050565b6000602082019050818103600083015261293481612524565b9050919050565b6000602082019050818103600083015261295481612547565b9050919050565b600060208201905081810360008301526129748161258d565b9050919050565b60006020820190508181036000830152612994816125b0565b9050919050565b600060208201905081810360008301526129b4816125d3565b9050919050565b600060208201905081810360008301526129d4816125f6565b9050919050565b600060208201905081810360008301526129f481612619565b9050919050565b60006020820190508181036000830152612a148161263c565b9050919050565b60006020820190508181036000830152612a3481612682565b9050919050565b6000602082019050612a5060008301846126a5565b92915050565b6000612a60612a71565b9050612a6c8282612d1d565b919050565b6000604051905090565b600067ffffffffffffffff821115612a9657612a95612e55565b5b612a9f82612e84565b9050602081019050919050565b600067ffffffffffffffff821115612ac757612ac6612e55565b5b612ad082612e84565b9050602081019050919050565b600081519050919050565b600081519050919050565b600082825260208201905092915050565b600082825260208201905092915050565b600081905092915050565b6000612b2b82612c9f565b9150612b3683612c9f565b9250827fffffffffffffffffffffffffffffffffffffffffffffffffffffffffffffffff03821115612b6b57612b6a612dc8565b5b828201905092915050565b6000612b8182612c9f565b9150612b8c83612c9f565b925082612b9c57612b9b612df7565b5b828204905092915050565b6000612bb282612c9f565b9150612bbd83612c9f565b9250817fffffffffffffffffffffffffffffffffffffffffffffffffffffffffffffffff0483118215151615612bf657612bf5612dc8565b5b828202905092915050565b6000612c0c82612c9f565b9150612c1783612c9f565b925082821015612c2a57612c29612dc8565b5b828203905092915050565b6000612c4082612c7f565b9050919050565b60008115159050919050565b60007fffffffff0000000000000000000000000000000000000000000000000000000082169050919050565b600073ffffffffffffffffffffffffffffffffffffffff82169050919050565b6000819050919050565b82818337600083830152505050565b60005b83811015612cd6578082015181840152602081019050612cbb565b83811115612ce5576000848401525b50505050565b60006002820490506001821680612d0357607f821691505b60208210811415612d1757612d16612e26565b5b50919050565b612d2682612e84565b810181811067ffffffffffffffff82111715612d4557612d44612e55565b5b80604052505050565b6000612d5982612c9f565b91507fffffffffffffffffffffffffffffffffffffffffffffffffffffffffffffffff821415612d8c57612d8b612dc8565b5b600182019050919050565b6000612da282612c9f565b9150612dad83612c9f565b925082612dbd57612dbc612df7565b5b828206905092915050565b7f4e487b7100000000000000000000000000000000000000000000000000000000600052601160045260246000fd5b7f4e487b7100000000000000000000000000000000000000000000000000000000600052601260045260246000fd5b7f4e487b7100000000000000000000000000000000000000000000000000000000600052602260045260246000fd5b7f4e487b7100000000000000000000000000000000000000000000000000000000600052604160045260246000fd5b6000601f19601f8301169050919050565b7f4552433732313a207472616e7366657220746f206e6f6e20455243373231526560008201527f63656976657220696d706c656d656e7465720000000000000000000000000000602082015250565b7f4f776e61626c653a206e6577206f776e657220697320746865207a65726f206160008201527f6464726573730000000000000000000000000000000000000000000000000000602082015250565b7f4552433732313a207472616e736665722066726f6d20696e636f72726563742060008201527f6f776e6572000000000000000000000000000000000000000000000000000000602082015250565b7f4552433732313a20746f6b656e20616c7265616479206d696e74656400000000600082015250565b7f4552433732313a207472616e7366657220746f20746865207a65726f2061646460008201527f7265737300000000000000000000000000000000000000000000000000000000602082015250565b7f4552433732313a20617070726f766520746f2063616c6c657200000000000000600082015250565b7f7b22636f6e74656e744e616d65223a2022000000000000000000000000000000600082015250565b7f222c2022617574686f72223a2022000000000000000000000000000000000000600082015250565b7f4552433732313a206f70657261746f7220717565727920666f72206e6f6e657860008201527f697374656e7420746f6b656e0000000000000000000000000000000000000000602082015250565b7f222c206c6f636174696f6e223a20220000000000000000000000000000000000600082015250565b7f4552433732313a20617070726f76652063616c6c6572206973206e6f74206f7760008201527f6e6572206e6f7220617070726f76656420666f7220616c6c0000000000000000602082015250565b7f4552433732313a2062616c616e636520717565727920666f7220746865207a6560008201527f726f206164647265737300000000000000000000000000000000000000000000602082015250565b7f4552433732313a206f776e657220717565727920666f72206e6f6e657869737460008201527f656e7420746f6b656e0000000000000000000000000000000000000000000000602082015250565b7f45524337323155524953746f726167653a2055524920736574206f66206e6f6e60008201527f6578697374656e7420746f6b656e000000000000000000000000000000000000602082015250565b7f227d000000000000000000000000000000000000000000000000000000000000600082015250565b7f4552433732313a206d696e7420746f20746865207a65726f2061646472657373600082015250565b7f45524337323155524953746f726167653a2055524920717565727920666f722060008201527f6e6f6e6578697374656e7420746f6b656e000000000000000000000000000000602082015250565b7f4552433732313a20617070726f76656420717565727920666f72206e6f6e657860008201527f697374656e7420746f6b656e0000000000000000000000000000000000000000602082015250565b7f4f776e61626c653a2063616c6c6572206973206e6f7420746865206f776e6572600082015250565b7f4552433732314d657461646174613a2055524920717565727920666f72206e6f60008201527f6e6578697374656e7420746f6b656e0000000000000000000000000000000000602082015250565b7f4552433732313a20617070726f76616c20746f2063757272656e74206f776e6560008201527f7200000000000000000000000000000000000000000000000000000000000000602082015250565b7f646174613a6170706c69636174696f6e2f6a736f6e3b6261736536342c000000600082015250565b7f4552433732313a207472616e736665722063616c6c6572206973206e6f74206f60008201527f776e6572206e6f7220617070726f766564000000000000000000000000000000602082015250565b61346181612c35565b811461346c57600080fd5b50565b61347881612c47565b811461348357600080fd5b50565b61348f81612c53565b811461349a57600080fd5b50565b6134a681612c9f565b81146134b157600080fd5b5056fe4142434445464748494a4b4c4d4e4f505152535455565758595a6162636465666768696a6b6c6d6e6f707172737475767778797a303132333435363738392b2fa2646970667358221220fe40c9481097a415ebfcb44fb007e255f13a203e2b7c21c15000a0106c5ed7aa64736f6c63430008010033",
  "linkReferences": {},
  "deployedLinkReferences": {}
}